S0270000626F6F746C6F616465722D6669726D776172652D5465737456657273696F6E2E7372656395
S11300000C942A000C9434000C9434000C943400A6
S11300100C9434000C9434000C9434000C9434008C
S11300200C9434000C9434000C9434000C9434007C
S11300300C9434000C9434000C9434000C9434006C
S11300400C9434000C9434000C9434000C9434005C
S11300500C94340011241FBECFE5D8E0DEBFCDBF21
S11300600E9450000C94F3000C94000090BD89B9D8
S113007088E18AB986E880BD08955F9BFECF8CB184
S11300800895C09A0895C0980895009741F0E9EF43
S1130090F0E03197F1F700C000000197C1F708952F
S11300A0CF93DF93CDB7DEB7C054D1090FB6F89420
S11300B0DEBF0FBECDBFB89A85E090E00E94360047
S11300C00E943D00813019F40E944100F9CF823032
S11300D019F40E944300F4CF833069F40E943D0078
S11300E0182F0E943D00212F30E0A901582BCA018E
S11300F00E944500E5CF843019F70E943D00D82EB8
S1130100F12C0E943D00853081F191E09F0DE1E0EA
S1130110F0E0EC0FFD1FEF0DF11D80838330F9F447
S1130120092F10E098012E5F3F4F20343105CCF4A5
S11301300E943D00E1E0F0E0EC0FFD1FE00FF11F35
S113014080830E943D0092E09F0DE1E0F0E0EC0F1F
S1130150FD1FE90FF11D53E0F50E808303C0F92E56
S113016001C0F92E8FE38F1560F6D11038C0A8CFE7
S113017010E001E0010FE1E0F0E0EC0FFD1FE10F02
S1130180F11D8081813021F40E944100102F21C093
S1130190823021F40E944300102F1BC08330C1F42D
S11301A082E0810FE1E0F0E0EC0FFD1FE80FF11DAC
S11301B01D5F808190E0982F8827E1E0F0E0EC0F4C
S11301C0FD1FE00FF11D2081822B0E94450001C01C
S11301D0102F1F1570F2E394DE1002C071CFE12CD2
S10D01E0F110C6CFF8CFF894FFCF5A
S9030000FC
